:100000000C9434000C9451000C94DD040C945100B9
:100010000C9451000C9451000C9451000C9451001C
:100020000C9451000C9451000C9451000C946F05E9
:100030000C9451000C9451000C9451000C945100FC
:100040000C9451000C9451000C9451000C945100EC
:100050000C94510077077B077F0786078A07910773
:100060009807A207A907B30711241FBECFE5D8E060
:10007000DEBFCDBF11E0A0E6B0E0E0E1F4E102C0F8
:1000800005900D92A230B107D9F721E0A2E0B1E0CE
:1000900001C01D92A432B207E1F70E9401040C9442
:1000A000060A0C94000061E08CE10E94860561E084
:1000B0008FE00E94860560E083E10E94860560E093
:1000C00085E10E94860561E084E10E94860561E089
:1000D00086E10E94860561E082E10E94860561E07A
:1000E0008CE00E94860561E08FE10E94860560E059
:1000F0008EE10E94860561E081E10E94860560E054
:1001000080E10E948605089561E08CE10E948605E9
:1001100061E08FE00E94860561E083E10E94860530
:1001200061E085E10E94860560E084E10E94860529
:1001300060E086E10E94860561E082E10E9486051A
:1001400061E08CE00E94860560E08FE10E948605F8
:1001500061E08EE10E94860560E081E10E948605F3
:1001600061E080E10E948605089560E083E10E94DD
:10017000860560E085E10E94860560E084E10E94DA
:10018000860560E086E10E94860560E08FE10E94BE
:10019000860560E08EE10E94860560E081E10E94B4
:1001A000860560E080E10E948605089561E08CE1AB
:1001B0000E94860561E08FE00E94860561E083E190
:1001C0000E94860561E085E10E94860560E084E189
:1001D0000E94860560E086E10E94860561E082E17A
:1001E0000E94860561E08CE00E94860561E08FE157
:1001F0000E94860560E08EE10E94860561E081E153
:100200000E94860560E080E10E9486052FEF88E964
:1002100095E2215080409040E1F700C000000E942C
:10022000B500089561E08CE10E94860561E08FE0F1
:100230000E94860560E083E10E94860560E085E11A
:100240000E94860561E084E10E94860561E086E106
:100250000E94860561E082E10E94860561E08CE0F3
:100260000E94860560E08FE10E94860561E08EE1D4
:100270000E94860560E081E10E94860561E080E1E0
:100280000E9486052FEF88E995E22150804090403A
:10029000E1F700C000000E94B5000895CF93C82F79
:1002A00060E089E00E94860580E00E9408068F7069
:1002B0009C2F907F682F692B80E00E941A0660E0D7
:1002C0008BE00E9486058FE891E00197F1F700C06E
:1002D000000061E08BE00E9486058FE19EE40197BB
:1002E000F1F700C0000080E00E94080690E1C99F7D
:1002F000900111248F70682F622B80E00E941A06F3
:1003000060E08BE00E9486058FE891E00197F1F7AD
:1003100000C0000061E08BE00E9486058FE39FE152
:100320000197F1F700C00000CF91089560E08AE0E6
:100330000E94860561E08BE00E9486052FEF89EF21
:1003400090E0215080409040E1F700C0000083E33E
:100350000E944E018FE891E00197F1F700C0000084
:1003600082E30E944E0188E20E944E0186E00E94D4
:100370004E018FE00E944E0181E00E944E010895DF
:10038000CF93C82F61E089E00E94860580E00E943B
:1003900008068F709C2F907F682F692B80E00E9449
:1003A0001A0660E08BE00E9486058FE891E00197D5
:1003B000F1F700C0000061E08BE00E9486058FE14C
:1003C0009EE40197F1F700C0000080E00E9408065B
:1003D00090E1C99F900111248F70682F622B80E0FB
:1003E0000E941A0660E08BE00E9486058FE891E08B
:1003F0000197F1F700C0000061E08BE00E948605E4
:100400008FE39FE10197F1F700C00000CF910895BD
:100410000F931F93CF938C01C0E003C00E94C001D3
:10042000CF5FF801EC0FF11D80818111F7CFCF91E3
:100430001F910F910895813019F0823039F008959D
:10044000862F8F7080680E944E010895862F8F70CE
:10045000806C0E944E01089581E00E944E01089533
:10046000CF93DF93EC010E94F00782E38C9F900111
:100470008D9F300D112440E050E060E074E284EF85
:1004800090E00E948A092150310937BD26BD60E005
:1004900082E00E94F30789E00E946407CE010E9477
:1004A000C007DF91CF910895CF93C42F009751F0EB
:1004B0008A35910561F0863A9F4F71F060E070E0F7
:1004C000CB010EC063E373E383EB9FE309C06AE9EA
:1004D00079E989E190E404C068EB7EE185E09FE37F
:1004E00020E030E04AE754E40E94F50820E030E0E4
:1004F00040E85EE30E94F508CC2319F0C13031F0EA
:1005000009C00E9437087BBD6ABD04C00E9437083D
:1005100079BD68BDCF91089561E08BE10E948605A9
:1005200080E00E94050780E00E9456070895CF935F
:100530009091020191111AC0C82F0E94620781E0B8
:100540008093020161E00E94E20681E00E94D006F1
:1005500061E08C2F0E9486058FE39CE90197F1F7FB
:1005600000C0000060E08C2F0E948605CF910895A6
:100570000E9497028FE59AEE0197F1F700C0000004
:1005800060916000709161008091620090916300C1
:1005900008958F929F92AF92BF92CF92DF92EF9287
:1005A000FF926B017C0149015A0120E030E040E2FA
:1005B00052E40E94F00818165CF020E030E040E2BF
:1005C00052E4C501B4010E94F00818160CF053C0A3
:1005D000A5019401C701B6010E94F008181654F550
:1005E0000E942C028CEA90E00E9408022FEF83ED1B
:1005F00090E3215080409040E1F700C000000E944D
:10060000D6002FEF83EC99E0215080409040E1F735
:1006100000C0000040E060E480E090E00E945402EE
:100620002FEF83ED90E3215080409040E1F700C030
:100630000000DEC00E942C028BEB90E00E940802BA
:100640000E9412012FEF83EC99E0215080409040EE
:10065000E1F700C0000040E060E480E090E00E942C
:1006600054022FEF83ED90E3215080409040E1F75A
:1006700000C00000BDC00E942C028BEC90E00E94E4
:1006800008020E9484002FEF83ED90E32150804008
:100690009040E1F700C000000E94B50040E060E437
:1006A00086EA9FEF0E9454022FEF8DE399E42150D8
:1006B00080409040E1F700C0000088E00E94B8024E
:1006C0004B015C012FEF8DE399E421508040904075
:1006D000E1F700C0000040E060E48AE590E00E949D
:1006E00054022FEF8DE399E4215080409040E1F7D0
:1006F00000C0000088E00E94B8026B017C012FEF6F
:100700008DE399E4215080409040E1F700C0000063
:1007100020E030E040E252E4C701B6010E94F00858
:1007200018165CF020E030E040E252E4C501B4016C
:100730000E94F00818160CF09ECFA7019601C50183
:10074000B4010E94F008181654F50E942C028BEB9D
:1007500090E00E9408022FEF83ED90E3215080404B
:100760009040E1F700C000000E9412012FEF83EDDE
:1007700090E3215080409040E1F700C0000040E04D
:1007800060E480E090E00E9454022FEF83ED90E35C
:10079000215080409040E1F700C0000029C00E9435
:1007A0002C028CEA90E00E9408022FEF83ED90E388
:1007B000215080409040E1F700C000000E94D60028
:1007C0002FEF83ED90E3215080409040E1F700C08F
:1007D000000040E060E480E090E00E9454022FEFCF
:1007E00083ED90E3215080409040E1F700C000008D
:1007F000FF90EF90DF90CF90BF90AF909F908F9041
:1008000008950E9401070E942A060E9496010E94F4
:100810008C0280E490E00E94300287ED90E00E941C
:10082000080265E082E00E941B0286EE90E00E94D2
:1008300008022FEF8BE792E9215080409040E1F7CA
:1008400000C000000E942C0240E060E480E090E0E4
:100850000E9454020E9453000E942C028CEE90E0F1
:100860000E9408022FEF89E698E1215080409040D5
:10087000E1F700C0000088E00E94B80220E030E00C
:1008800040E252E40E942B08882324F70E94B5001E
:100890002FEF83ED90E3215080409040E1F700C0BE
:1008A000000040E060E48AE590E00E9454022FEFEF
:1008B00083ED90E3215080409040E1F700C00000BC
:1008C00088E00E94B8026B017C012FEF83ED90E37A
:1008D000215080409040E1F700C00000C701B60100
:1008E0000E943008DC01CB014AE066E071E00E9422
:1008F000D109C6E0D1E0DE010D900020E9F71197A3
:1009000085E0EDEFF0E001900D928A95E1F70E940D
:100910002C02CE010E9408022FEF8DE399E42150B2
:1009200080409040E1F700C0000040E060E486EACB
:100930009FEF0E9454022FEF83ED90E321508040FF
:100940009040E1F700C0000088E00E94B8024B012F
:100950005C012FEF83ED90E3215080409040E1F760
:1009600000C00000C501B4010E943008DC01CB01C9
:100970004AE0BE010E94D109DE010D900020E9F796
:10098000119785E0EDEFF0E001900D928A95E1F787
:100990000E942C02CE010E9408022FEF8DE399E401
:1009A000215080409040E1F700C00000A501940173
:1009B000C701B6010E94C9024DCF1F920F920FB618
:1009C0000F921124CF92DF92EF92FF922F933F93D9
:1009D0004F935F936F937F938F939F93AF93BF9347
:1009E000CF93DF93EF93FF9380910201813009F061
:1009F0005FC080910301882319F0813051F058C005
:100A000062E080E094E00E94200781E0809303018F
:100A10004FC00E945007C0910401D0910501DC2F06
:100A2000CC270E945407C80FD11D20E034E244E7D0
:100A300059E4609168007091690080916A0090911A
:100A40006B000E94F5086B017C01BE0180E090E024
:100A50000E946608A70196010E94F5086093640051
:100A60007093650080936600909367002DEB37E3E9
:100A700046E855E30E94F50820E03CEF45E057E4E6
:100A80000E94F50820E030E040E05FE30E94F508B6
:100A900060936000709361008093620090936300A4
:100AA00010920201109203011092050110920401AC
:100AB000FF91EF91DF91CF91BF91AF919F918F9176
:100AC0007F916F915F914F913F912F91FF90EF90A8
:100AD000DF90CF900F900FBE0F901F9018951F9230
:100AE0000F920FB60F9211248F939F938091040160
:100AF00090910501019690930501809304019F91C7
:100B00008F910F900FBE0F901F901895982F96956C
:100B1000969596958770913021F130F09230F1F1F1
:100B2000933009F458C00895613069F44BB321E063
:100B300030E0B90102C0660F771F8A95E2F7CB015A
:100B4000842B8BBB08954BB321E030E0B90102C088
:100B5000660F771F8A95E2F7CB01809584238BBBC4
:100B60000895613069F448B321E030E0B90102C072
:100B7000660F771F8A95E2F7CB01842B88BB089517
:100B800048B321E030E0B90102C0660F771F8A95B3
:100B9000E2F7CB018095842388BB0895613069F426
:100BA00045B321E030E0B90102C0660F771F8A9596
:100BB000E2F7CB01842B85BB089545B321E030E0FB
:100BC000B90102C0660F771F8A95E2F7CB018095C5
:100BD000842385BB0895613069F442B321E030E09D
:100BE000B90102C0660F771F8A95E2F7CB01842B0B
:100BF00082BB089542B321E030E0B90102C0660F24
:100C0000771F8A95E2F7CB018095842382BB0895F4
:100C1000813041F028F0823039F0833039F008C05B
:100C20008BB3089588B3089585B3089582B308956A
:100C300080E00895813041F028F0823039F083302F
:100C400039F008956BBB089568BB089565BB08959E
:100C500062BB089580E0A0C0982F969596959695D2
:100C6000282F2770913061F138F0923009F44CC090
:100C7000933009F46DC08FC0E82FF0E0EE0FFF1F36
:100C8000E459FF4F9081913069F49AB341E050E00C
:100C9000BA0102C0660F771F2A95E2F79B01292B44
:100CA0002ABB79C09AB341E050E0BA0102C0660F96
:100CB000771F2A95E2F79B01209529232ABB6BC059
:100CC000E82FF0E0EE0FFF1FE459FF4F90819130C5
:100CD00069F497B341E050E0BA0102C0660F771F94
:100CE0002A95E2F79B01292B27BB55C097B341E01A
:100CF00050E0BA0102C0660F771F2A95E2F79B0108
:100D00002095292327BB47C0E82FF0E0EE0FFF1FF7
:100D1000E459FF4F9081913069F494B341E050E081
:100D2000BA0102C0660F771F2A95E2F79B01292BB3
:100D300024BB31C094B341E050E0BA0102C0660F59
:100D4000771F2A95E2F79B012095292324BB23C016
:100D5000E82FF0E0EE0FFF1FE459FF4F9081913034
:100D600069F491B341E050E0BA0102C0660F771F09
:100D70002A95E2F79B01292B21BB0DC091B341E0DD
:100D800050E0BA0102C0660F771F2A95E2F79B0177
:100D90002095292321BB8F5F803208F45DCF089511
:100DA000813041F018F0823049F008958BB78064AB
:100DB0008BBF08958BB780688BBF08958BB7806217
:100DC0008BBF0895813041F018F0823071F00895A2
:100DD00085B7682B65BF089585B770E0660F771FEC
:100DE000660F771F682B65BF0895623021F484B7C2
:100DF0008F7B84BF0895633019F484B7806484BF07
:100E000008958FB780688FBF089593B7977B93BF7E
:100E1000813051F028F0823059F0833069F0089524
:100E200083B7877B83BF089583B7806483BF0895AA
:100E300083B7886083BF089583B7886483BF0895AC
:100E400023B7287F23BF88309105D1F028F400977D
:100E500079F0019789F00895811521E09207C1F09A
:100E6000811524E09207C1F080349105C1F40CC0D3
:100E700083B7887F83BF089583B7816083BF089558
:100E800083B7826083BF089583B7836083BF08956B
:100E900083B7846083BF089583B7856083BF089557
:100EA00083B7887F83BF089582B70895811104C0F6
:100EB00089B7816089BF0895823019F489B782604B
:100EC00089BF089512BE0895E82F8FB58C7F8FBD1E
:100ED0008EB5877E8EBD8E2F90E0FC013197EA3073
:100EE000F10508F04CC0E65DFF4F0C94A9098FB5E1
:100EF00081608FBD08958FB582608FBD08958FB5D5
:100F000081608FBD8FB582608FBD08958EB588607A
:100F10008EBD08958FB581608FBD8EB588608EBD02
:100F200008958FB582608FBD8EB588608EBD08959F
:100F30008FB581608FBD8FB582608FBD8EB58860A3
:100F40008EBD08958EB588608EBD8EB580618EBDD4
:100F500008958FB582608FBD8EB588608EBD8EB5C9
:100F600080618EBD08958FB581608FBD8FB5826021
:100F70008FBD8EB588608EBD8EB580618EBD0895A3
:100F80002EB5287F2EBD88309105D1F028F400972A
:100F900079F0019789F00895811521E09207C1F059
:100FA000811524E09207C1F080349105C1F40CC092
:100FB0008EB5887F8EBD08958EB581608EBD0895F3
:100FC0008EB582608EBD08958EB583608EBD089506
:100FD0008EB584608EBD08958EB585608EBD0895F2
:100FE0001DBC1CBC08959FB59F739FBD662319F05F
:100FF0006130C9F00895813051F028F0823059F005
:10100000833069F008958FB58F738FBD08958FB5C4
:1010100080648FBD08958FB580688FBD08958FB5AA
:10102000806C8FBD0895813051F028F0823059F0E6
:10103000833069F008958FB58F7C8FBD08958FB58B
:1010400080618FBD08958FB580648FBD08958FB581
:1010500080638FBD08950E94A30808F481E008957D
:101060000E9437086894B1110C94EA0808950E9410
:10107000CF0888F09F5798F0B92F9927B751B0F053
:10108000E1F0660F771F881F991F1AF0BA95C9F70C
:1010900014C0B13091F00E94E908B1E008950C94B9
:1010A000E908672F782F8827B85F39F0B93FCCF36C
:1010B000869577956795B395D9F73EF49095809589
:1010C000709561957F4F8F4F9F4F0895E89409C0A9
:1010D00097FB3EF490958095709561957F4F8F4F6B
:1010E0009F4F9923A9F0F92F96E9BB279395F69581
:1010F000879577956795B795F111F8CFFAF4BB0FFF
:1011000011F460FF1BC06F5F7F4F8F4F9F4F16C062
:10111000882311F096E911C0772321F09EE8872FEC
:10112000762F05C0662371F096E8862F70E060E0A8
:101130002AF09A95660F771F881FDAF7880F969521
:10114000879597F90895990F0008550FAA0BE0E8C5
:10115000FEEF16161706E807F907C0F01216130679
:10116000E407F50798F0621B730B840B950B39F4B9
:101170000A2661F0232B242B252B21F408950A261F
:1011800009F4A140A6958FEF811D811D089557FD9B
:101190009058440F551F59F05F3F71F04795880FE5
:1011A00097FB991F61F09F3F79F08795089512167C
:1011B00013061406551FF2CF4695F1DF08C0161628
:1011C00017061806991FF1CF8695710561050894D9
:1011D0000895E894BB2766277727CB0197F90895F0
:1011E0000E94A30808F48FEF08950E9408090C9448
:1011F00079090E946B0938F00E94720920F095234A
:1012000011F00C9462090C94680911240C94EA08FA
:101210000E94C70870F3959FC1F3950F50E0551FCA
:10122000629FF001729FBB27F00DB11D639FAA273B
:10123000F00DB11DAA1F649F6627B00DA11D661F8A
:10124000829F2227B00DA11D621F739FB00DA11DAB
:10125000621F839FA00D611D221F749F3327A00D65
:10126000611D231F849F600D211D822F762F6A2F01
:1012700011249F5750409AF0F1F088234AF0EE0F66
:10128000FF1FBB1F661F771F881F91505040A9F793
:101290009E3F510580F00C9462090C94EA085F3F70
:1012A000E4F3983ED4F3869577956795B795F795CF
:1012B000E7959F5FC1F7FE2B880F911D9695879547
:1012C00097F9089597F99F6780E870E060E00895C6
:1012D0009FEF80EC089500240A941616170618064E
:1012E0000906089500240A9412161306140605062A
:1012F0000895092E0394000C11F4882352F0BB0FBB
:1013000040F4BF2B11F460FF04C06F5F7F4F8F4F1D
:101310009F4F0895052E97FB1EF400940E94A1098B
:1013200057FD07D00E94AF0907FC03D04EF40C9480
:10133000A10950954095309521953F4F4F4F5F4FF4
:10134000089590958095709561957F4F8F4F9F4F31
:101350000895EE0FFF1F0590F491E02D0994A1E28E
:101360001A2EAA1BBB1BFD010DC0AA1FBB1FEE1F1F
:10137000FF1FA217B307E407F50720F0A21BB30B6A
:10138000E40BF50B661F771F881F991F1A9469F7E6
:1013900060957095809590959B01AC01BD01CF0142
:1013A0000895BB274A3031F4992322F4BDE2909589
:1013B00081959F4F0C94DD09BB27FB015527AA2778
:1013C000880F991FAA1FA41710F0A41B83955051D2
:1013D000B9F7A05DAA3308F0A95DA193009779F74A
:1013E000B111B1931192CB010C94F609DC01FC010F
:1013F000672F71917723E1F7329704C07C916D9349
:1014000070836291AE17BF07C8F30895F894FFCFB9
:101410000000803F0000803FBD3786380101010198
:1014200001010101010101010101010101010101AC
:10143000010101010101010101010101010101019C
:10144000010101010101010001010101000101018E
:101450000101000100000100010001006D6F7669CB
:101460006E67206C6566742E2E2E006D6F76696E29
:10147000672072696768742E2E2E006261636B7735
:101480006172642E2E2E004175746F6E6F6D6F75D4
:101490007320436172004953204F4E006D6F76698F
:1014A0006E6720666F72776172642E2E0020636D06
:0214B00020001A
:00000001FF
